S01300004C4344206E6577204C69622E737265639D
S11300000C9434000C9449000C9449000C9449005D
S11300100C9449000C9449000C9449000C94490038
S11300200C9449000C9449000C9449000C94490028
S11300300C9449000C9449000C9449000C94490018
S11300400C9449000C9449000C9449000C94490008
S11300500C9449000C9449000C9449000C944900F8
S11300600C9449000C94490011241FBECFEFD8E032
S1130070DEBFCDBF11E0A0E0B1E0E6E4F3E002C0F2
S113008005900D92AA39B107D9F70E9480010C940A
S1130090A1010C9400005B9A8AE68A95F1F700C0EE
S11300A05B9808959BB19F709BB99BB1807F982BFF
S11300B09BB90E944B000895CF93C82F5A9A0E946F
S11300C052008C2F8295807F0E94520085EF8A9582
S11300D0F1F70000CF910895CF93C82F5A980E944A
S11300E052008C2F8295807F0E94520080EE8A9568
S11300F0F1F7CF91089581E00E946C008FE39FE1B6
S11301000197F1F700C0000008958AB18C6F8AB995
S11301108BB183708BB98FE59AEE0197F1F700C02C
S1130120000080E30E9452008FE19EE40197F1F702
S113013000C000000E944B008FE99FE00197F1F797
S113014000C000000E944B008FE99FE00197F1F787
S113015000C0000080E20E9452008FE19EE40197FB
S1130160F1F700C0000088E20E946C008CE00E945D
S11301706C0086E00E946C000E947B00089562304F
S113018059F018F4613031F00895633039F0643077
S113019039F00895805805C0805403C0805701C0C9
S11301A080530E946C000895CF93DF93EC01888103
S11301B0882331F021960E945C0089918111FBCF44
S11301C0DF91CF910895CF93DF93CDB7DEB76097DA
S11301D00FB6F894DEBF0FBECDBF90E1E8E8F1E0C2
S11301E0DE01119601900D929A95E1F7682F80E057
S11301F00E94BF00CE0101960E94D40060960FB603
S1130200F894DEBF0FBECDBFDF91CF9108953F922A
S11302104F925F926F927F928F929F92AF92BF9212
S1130220CF92DF92EF92FF920F931F93CF93DF93BE
S11302304C017B01422E042F10E0C8010F965C0193
S1130240612C512CC22ED12C6894332434F80150E3
S11302501109C6010E94E30090E1961530F0642D67
S1130260832D86190E94BF0005C05394642D80E03D
S11302700E94BF00C52DD0E0C017D107C4F4CE0141
S1130280752C8C1B9D0B419764F4F701E70DF11D50
S11302908081803B21F48FED0E945C0002C00E94AB
S11302A05C007394872D90E08017910754F3642DBC
S11302B080E00E94BF00C4010E94D4002FEF89E6B1
S11302C098E1215080409040E1F700C00000639421
S11302D0862D90E08A159B050CF4BBCFDF91CF915E
S11302E01F910F91FF90EF90DF90CF90BF90AF9050
S11302F09F908F907F906F905F904F903F90089564
S11303000E9485000E947B0061E080E00E94BF00A3
S113031087E791E00E94D40022E030E040E250E020
S11303206EE471E08EE691E00E94070122E030E085
S11303304EE450E060E071E082E791E00E94070142
S1090340EBCFF894FFCF9F
S11303464265776F656C6B74202D2D54656D703A1C
S1130356203920B043202D2D204C756674666575B2
S1130366636874653A20373025202D2D204E696543
S11303766465727363686C61673A203025202D2D9D
S11303862057696E643A2031366B6D2F68005465C8
S11303966D703A20323120B043202D2D204C7566E5
S11303A674666575636874653A2033302500494E72
S11303B63A004F55543A00444F2033302E30312002
S11303C62D2031313A3430002020202020202020D6
S10D03D62020202020202020000019
S9030000FC
